:100000000C945D000C9485000C9485000C94850084
:100010000C9485000C9485000C9485000C9485004C
:100020000C9485000C9485000C9485000C94AE040F
:100030000C9485000C9485000C9485000C9485002C
:100040000C94DE020C9485000C944E030C9428034F
:100050000C9485000C9485000C9485000C9485000C
:100060000C9480030C9485000000000024002700FD
:100070002A0000000000250028002B0004040404CE
:100080000404040402020202020203030303030342
:10009000010204081020408001020408102001021F
:1000A00004081020000000080002010000030407FB
:1000B00000000000000000008B0511241FBECFEFE0
:1000C000D8E0DEBFCDBF11E0A0E0B1E0EEE6F3E1A5
:1000D00002C005900D92A432B107D9F722E0A4E244
:1000E000B1E001C01D92AF3BB207E1F710E0CDE5F2
:1000F000D0E004C02197FE010E949A07CC35D107B9
:10010000C9F70E94D7050C94B5090C94000090E043
:10011000FC01EC55FF4F2491FC01E057FF4F349157
:10012000FC01E458FF4FE491EE2309F43CC0222384
:1001300039F1233091F038F42130A9F0223001F563
:1001400084B58F7D12C0273091F02830A1F0243083
:10015000B9F4809180008F7D03C0809180008F77FB
:10016000809380000DC084B58F7784BD09C08091D5
:10017000B0008F7703C08091B0008F7D8093B00076
:10018000F0E0EE0FFF1FEE58FF4FA591B4919FB71F
:10019000F894611104C08C913095382302C0EC9121
:1001A0003E2B3C939FBF0895CF93DF9390E0FC01DB
:1001B000E057FF4F2491FC01E458FF4F84918823BE
:1001C00061F190E0880F991FFC01E859FF4FC5913C
:1001D000D491FC01EE58FF4FA591B491611109C073
:1001E0009FB7F8948881209582238883EC912E23F1
:1001F0000BC0623061F49FB7F8948881322F30953C
:1002000083238883EC912E2B2C939FBF06C08FB73E
:10021000F894E8812E2B28838FBFDF91CF9108952A
:1002200008950895CF92DF92EF92FF920F931F935C
:10023000CF93DF936C017A018B01C0E0D0E0CE1543
:10024000DF0581F0D8016D918D01D601ED91FC9112
:100250000190F081E02DC6010995892B11F02196BE
:10026000EECF7E01C701DF91CF911F910F91FF90DB
:10027000EF90DF90CF900895FC01538D448D252F92
:1002800030E0842F90E0821B930B541710F0CF9630
:10029000089501970895FC01918D828D981761F062
:1002A000828DDF01A80FB11D5D968C91928D9F5FAD
:1002B0009F73928F90E008958FEF9FEF0895FC0158
:1002C000918D828D981731F0828DE80FF11D858D0B
:1002D00090E008958FEF9FEF0895FC01918D228D9E
:1002E000892F90E0805C9F4F821B91098F73992723
:1002F000089587E092E00E946D0121E0892B09F4C6
:1003000020E0822F0895FC01848DDF01A80FB11D2C
:10031000A35ABF4F2C91848D90E001968F7399273B
:10032000848FA689B7892C93A089B1898C91837019
:1003300080648C93938D848D981306C00288F38912
:10034000E02D80818F7D80830895EF92FF920F933F
:100350001F93CF93DF93EC0181E0888F9B8D8C8D71
:10036000981305C0E889F989808185FD26C0F62E9D
:100370000B8D10E00F5F1F4F0F731127E02E8C8D38
:10038000E8120CC00FB607FCFACFE889F989808122
:1003900085FFF5CFCE010E948301F1CF8B8DFE0149
:1003A000E80FF11DE35AFF4FF0829FB7F8940B8FCF
:1003B000EA89FB89808180620AC09FB7F894EE8940
:1003C000FF896083E889F9898081837080648083F4
:1003D0009FBF81E090E0DF91CF911F910F91FF903F
:1003E000EF900895CF93DF93EC01888D8823C9F0B7
:1003F000EA89FB89808185FD05C0A889B9898C912E
:1004000086FD0FC00FB607FCF5CF808185FFF2CFC8
:10041000A889B9898C9185FFEDCFCE010E94830117
:10042000E7CFDF91CF91089580E090E0892B29F00C
:100430000E94790181110C940000089585ED80934C
:10044000BC008091BC0084FDFCCF1092D9010895BE
:1004500040918A01262F30E0240F311D21323105D1
:10046000DCF42091D9012430C9F4FC0180E090E053
:10047000861758F430918A012191DC01A659BE4FAC
:10048000A30FB11D2C930196F3CF80918A01680FC1
:1004900060938A0180E0089581E0089582E00895E4
:1004A0000895E091B2018091B101E81730F4F0E0D5
:1004B000E65BFE4F808190E008958FEF9FEF0895F7
:1004C0009091B2018091B101981750F4E92FF0E0BA
:1004D000E65BFE4F208130E09F5F9093B20102C047
:1004E0002FEF3FEFC90108958091B10190E0209175
:1004F000B201821B91090895CF92DF92EF92FF9291
:100500000F931F93CF93DF937C01CB018A0120913E
:10051000DA01222389F0EB016B01C40ED51ECC1544
:10052000DD0569F06991D701ED91FC910190F081B1
:10053000E02DC7010995F3CF642F0E942802C8015E
:10054000DF91CF911F910F91FF90EF90DF90CF90AF
:100550000895CF93DF931F92CDB7DEB769832091C3
:10056000DA012223D1F02091FD01203240F021E078
:1005700030E0FC013383228380E090E015C080915D
:10058000DB01E82FF0E0E452FE4F998190838F5F0A
:100590008093DB018093FD0105C061E0CE010196EF
:1005A0000E94280281E090E00F90DF91CF910895A2
:1005B000089580E090E008950E94B0091F920F9284
:1005C0000FB60F9211242F933F938F939F93AF9366
:1005D000BF938091030290910402A0910502B09113
:1005E00006023091020223E0230F2D3720F40196FA
:1005F000A11DB11D05C026E8230F0296A11DB11D46
:10060000209302028093030290930402A0930502B8
:10061000B09306028091FE019091FF01A09100022B
:10062000B09101020196A11DB11D8093FE0190932E
:10063000FF01A0930002B0930102BF91AF919F917F
:100640008F913F912F910F900FBE0F901F90189593
:100650001F920F920FB60F9211242F933F934F9337
:100660005F936F937F938F939F93AF93BF93EF931A
:10067000FF9387E092E00E948301FF91EF91BF9189
:10068000AF919F918F917F916F915F914F913F912A
:100690002F910F900FBE0F901F9018951F920F92E1
:1006A0000FB60F9211242F938F939F93EF93FF9385
:1006B000E0911702F09118028081E0911D02F09103
:1006C0001E0282FD12C09081809120028F5F8F7385
:1006D00020912102821751F0E0912002F0E0E95FC1
:1006E000FD4F958F8093200201C08081FF91EF9193
:1006F0009F918F912F910F900FBE0F901F90189583
:100700001F920F920FB60F9211242F933F934F9386
:100710005F936F937F938F939F93AF93BF93EF9369
:10072000FF938091B900887F803609F49CC068F5FA
:10073000883209F45BC090F4803109F454C038F475
:10074000882309F4F6C0883009F44DC0F6C088311A
:1007500009F44CC0803209F45DC0EFC0803409F464
:1007600068C048F4803309F455C0883309F0E5C007
:100770008093D701D8C0803509F44FC0883509F47B
:100780005DC0883409F0D9C0D6C0883909F4C7C023
:10079000A8F4883709F467C038F4883609F463C0D0
:1007A000803709F460C0C9C0883809F4B8C08039FE
:1007B00009F45FC0803809F0C0C05BC0803B09F419
:1007C00086C038F4803A09F466C0883A09F47FC0DC
:1007D000B4C0803C09F4A7C0883C09F4A4C0883B9D
:1007E00009F48AC0AAC08091B40110C09091D601CA
:1007F0008091D501981770F5E091D60181E08E0FB8
:100800008093D601F0E0EB54FE4F80818093BB00D3
:1008100085EC86C08093D7018EC0E091D60181E03F
:100820008E0F8093D6018091BB00F0E0EB54FE4F19
:1008300080839091D6018091D5016EC0E091D60160
:1008400081E08E0F8093D6018091BB00F0E0EB54E5
:10085000FE4F80838091D80181116DC081E080932B
:10086000B30184EA61C083E08093D9011092AC01A6
:10087000CFCF8091AC01803208F051C0E091AC0143
:1008800081E08E0F8093AC018091BB00F0E0E457D3
:10089000FE4F8083BDCF85EC8093BC001092D901C0
:1008A0008091AC01803230F4E091AC01F0E0E4578B
:1008B000FE4F10826091AC0170E0E091AD01F091CB
:1008C000AE018CE891E009951092AC0136C084E04D
:1008D0008093D90110928B0110928A01E091AF01AF
:1008E000F091B001099580918A01811105C081E0E4
:1008F00080938A0110926A01E0918B0181E08E0F52
:1009000080938B01F0E0E659FE4F80818093BB001D
:1009100090918B0180918A01981708F479CF85E82E
:100920008093BC000AC085EC8093BC001092D90172
:1009300004C01092D7010E941E02FF91EF91BF9157
:10094000AF919F918F917F916F915F914F913F9167
:100950002F910F900FBE0F901F9018951F920F921E
:100960000FB60F9211242F933F934F935F936F9382
:100970007F938F939F93AF93BF93EF93FF93809158
:10098000240187FF05C010928500109284001BC0CF
:1009900020912401022E000C330B8091490190E03C
:1009A0002817390784F480912401082E000C990B34
:1009B000FC01EE0FFF1F8E0F9F1FFC01EB5DFE4F32
:1009C000808186FD15C0809124018F5F8093240172
:1009D00020912401022E000C330B8091490190E0FC
:1009E00028173907C4F4809124018C3064F113C0B6
:1009F00080912401082E000C990BFC01EE0FFF1FC3
:100A00008E0F9F1FFC01EB5DFE4F808160E08F73B6
:100A10000E948700D8CF8091840090918500049631
:100A200080349C4918F480E49CE905C080918400DE
:100A300090918500049690938900809388008FEFB1
:100A4000809324013BC020918400309185008091E7
:100A50002401082E000C990BFC01EE0FFF1F8E0FD6
:100A60009F1FFC01EB5DFE4F81819281820F931FDE
:100A7000909389008093880080912401082E000CB7
:100A8000990BFC01EE0FFF1F8E0F9F1FFC01EB5D0A
:100A9000FE4F808186FF12C080912401082E000C39
:100AA000990BFC01EE0FFF1F8E0F9F1FFC01EB5DEA
:100AB000FE4F808161E08F730E948700FF91EF916C
:100AC000BF91AF919F918F917F916F915F914F9166
:100AD0003F912F910F900FBE0F901F901895FC0122
:100AE000909149019C30A0F481E0890F80934901E5
:100AF0009083892F90E0FC01EE0FFF1F8E0F9F1F48
:100B0000FC01EB5DFE4F88EB9BE0928381830895AF
:100B10008FEF80830895E7E0F2E01382128288EE7F
:100B200093E0A0E0B0E084839583A683B78324E0BC
:100B300031E03183208325EC30E03587248724ECB5
:100B400030E03787268720EC30E0318B208B21EC9A
:100B500030E0338B228B22EC30E0358B248B26EC7B
:100B600030E0378B268B118E128E138E148EE4EAB2
:100B7000F2E01382128284839583A683B78386E191
:100B800091E0918380838CEB92E00E946F0589EB6A
:100B900092E00E946F0586EB92E00E946F0583EB66
:100BA00092E00E946F0580EB92E00C946F057894C0
:100BB00084B5826084BD84B5816084BD85B5826062
:100BC00085BD85B5816085BD80916E008160809313
:100BD0006E0010928100809181008260809381007C
:100BE000809181008160809381008091800081608C
:100BF000809380008091B10084608093B1008091E7
:100C0000B00081608093B00080917A00846080930E
:100C10007A0080917A00826080937A0080917A00D5
:100C2000816080937A0080917A00806880937A0056
:100C30001092C100E0911702F091180282E08083C7
:100C4000E0911302F09114021082E0911502F091EC
:100C500016028FEC808310921F02E0911B02F0912C
:100C60001C0286E08083E0911902F0911A028081D3
:100C700080618083E0911902F0911A02808188607E
:100C80008083E0911902F0911A028081806880834C
:100C9000E0911902F0911A0280818F7D808361E0DA
:100CA00081E00E94D40061E082E00E94D40060E014
:100CB00082E00E94D40060E081E00E94D4001092A3
:100CC000B2011092B1011092DB011092FD0110925D
:100CD000D901C1E0C093D8011092B30161E082E173
:100CE0000E94870061E083E10E9487008091B90043
:100CF0008E7F8093B9008091B9008D7F8093B90079
:100D000088E48093B80085E48093BC0080E191E0A2
:100D10009093B0018093AF0181E191E09093AE0197
:100D20008093AD01C093DA0188E68093FC011092B4
:100D3000DB011092FD016BE684EA92E00E94A902B9
:100D400060E084EA92E00E94A9029091FD01913254
:100D500008F044C08091D9018111FCCF82E08093DA
:100D6000D90181E08093D8018FEF8093D701109251
:100D7000D6019093D501ACEDB1E0E5EBF1E080E078
:100D8000981721F02D9121938F5FFACF1092B40123
:100D90008091B401806D8093B4018091B301813062
:100DA00061F41092B3018091B4018093BB008091F3
:100DB000BC0083FDF8CF85EC01C085EE8093BC00BC
:100DC0008091D9018230E1F38091D7018F3F31F0DA
:100DD0008091D701803211F08091D7011092DB0110
:100DE0001092FD011092DA01CC24CA9483E0D82E2F
:100DF000E12CF12CC4E48FB7F89440910302509198
:100E0000040260910502709106028FBFC0937C00BE
:100E100080917A00806480937A0080917A0086FDC8
:100E2000FCCFA091780080917900B0E0B82B28E841
:100E300033E10E949307A70196010E944307B9017D
:100E4000330F880B990B0E94B7082FE93BEA4DE25C
:100E50005EE30E94A0079B01AC0168E471EE8CEA9E
:100E600091E40E940D0820E030E04AE754E40E943B
:100E700043090E947F08683271058105910534F6A7
:100E80000E941402B8CF052E97FB1EF400940E9416
:100E90005A0757FD07D00E94620707FC03D04EF4A3
:100EA0000C945A0750954095309521953F4F4F4FE0
:100EB0005F4F089590958095709561957F4F8F4F06
:100EC0009F4F0895A1E21A2EAA1BBB1BFD010DC066
:100ED000AA1FBB1FEE1FFF1FA217B307E407F507EA
:100EE00020F0A21BB30BE40BF50B661F771F881FC6
:100EF000991F1A9469F760957095809590959B015C
:100F0000AC01BD01CF010895A29FB001B39FC00104
:100F1000A39F700D811D1124911DB29F700D811D25
:100F20001124911D08950E948407B7FF0895821B24
:100F3000930B0895EE0FFF1F0590F491E02D099497
:100F40005058BB27AA270E94B8070C9409090E9491
:100F5000FB0838F00E94020920F039F49F3F19F491
:100F600026F40C94F8080EF4E095E7FB0C94F208D4
:100F7000E92F0E941A0958F3BA176207730784070A
:100F8000950720F079F4A6F50C943C090EF4E09551
:100F90000B2EBA2FA02D0B01B90190010C01CA0133
:100FA000A0011124FF27591B99F0593F50F4503EDE
:100FB00068F11A16F040A22F232F342F4427585FD0
:100FC000F3CF469537952795A795F0405395C9F7E8
:100FD0007EF41F16BA0B620B730B840BBAF09150A0
:100FE000A1F0FF0FBB1F661F771F881FC2F70EC03F
:100FF000BA0F621F731F841F48F487957795679512
:10100000B795F7959E3F08F0B0CF9395880F08F0FD
:101010009927EE0F9795879508950E9421080C94C3
:1010200009090E94020958F00E94FB0840F029F4C7
:101030005F3F29F00C94F20851110C943D090C9477
:10104000F8080E941A0968F39923B1F3552391F324
:10105000951B550BBB27AA2762177307840738F027
:101060009F5F5F4F220F331F441FAA1FA9F335D084
:101070000E2E3AF0E0E832D091505040E695001C38
:10108000CAF72BD0FE2F29D0660F771F881FBB1FF2
:10109000261737074807AB07B0E809F0BB0B802DD0
:1010A000BF01FF2793585F4F3AF09E3F510578F0FC
:1010B0000C94F2080C943D095F3FE4F3983ED4F39E
:1010C000869577956795B795F7959F5FC9F7880FD0
:1010D000911D9695879597F90895E1E0660F771F22
:1010E000881FBB1F621773078407BA0720F0621BB3
:1010F000730B840BBA0BEE1F88F7E09508950E94DE
:1011000086086894B1110C943D0908950E94220943
:1011100088F09F5798F0B92F9927B751B0F0E1F0B8
:10112000660F771F881F991F1AF0BA95C9F714C068
:10113000B13091F00E943C09B1E008950C943C0953
:10114000672F782F8827B85F39F0B93FCCF38695A1
:1011500077956795B395D9F73EF4909580957095FE
:1011600061957F4F8F4F9F4F0895E89409C097FB7B
:101170003EF490958095709561957F4F8F4F9F4F6E
:101180009923A9F0F92F96E9BB279395F6958795B2
:1011900077956795B795F111F8CFFAF4BB0F11F475
:1011A00060FF1BC06F5F7F4F8F4F9F4F16C088231C
:1011B00011F096E911C0772321F09EE8872F762F52
:1011C00005C0662371F096E8862F70E060E02AF093
:1011D0009A95660F771F881FDAF7880F969587957F
:1011E00097F9089597F99F6780E870E060E00895A7
:1011F0009FEF80EC089500240A941616170618062F
:101200000906089500240A9412161306140605060A
:101210000895092E0394000C11F4882352F0BB0F9B
:1012200040F4BF2B11F460FF04C06F5F7F4F8F4FFE
:101230009F4F089557FD9058440F551F59F05F3F39
:1012400071F04795880F97FB991F61F09F3F79F0E8
:1012500087950895121613061406551FF2CF46956A
:10126000F1DF08C0161617061806991FF1CF8695EC
:101270007105610508940895E894BB2766277727D0
:10128000CB0197F908950E9456090C9409090E9410
:10129000FB0838F00E94020920F0952311F00C940D
:1012A000F2080C94F80811240C943D090E941A09C4
:1012B00070F3959FC1F3950F50E0551F629FF001A9
:1012C000729FBB27F00DB11D639FAA27F00DB11DC2
:1012D000AA1F649F6627B00DA11D661F829F22274B
:1012E000B00DA11D621F739FB00DA11D621F839FD2
:1012F000A00D611D221F749F3327A00D611D231FA8
:10130000849F600D211D822F762F6A2F11249F57F5
:1013100050409AF0F1F088234AF0EE0FFF1FBB1FF8
:10132000661F771F881F91505040A9F79E3F5105B7
:1013300080F00C94F2080C943D095F3FE4F3983E72
:10134000D4F3869577956795B795F795E7959F5F61
:10135000C1F7FE2B880F911D9695879597F90895F3
:0E13600081E090E0F8940C94B509F894FFCF6A
:10136E0000000000A50112013C01F2016D014B01CC
:10137E005F0100000000A9027C02D9025002740233
:04138E0060025102A6
:00000001FF
