:100000000C945D000C9485000C9485000C94850084
:100010000C9485000C9485000C9485000C9485004C
:100020000C9485000C9485000C9485000C94C402FB
:100030000C9485000C9485000C9485000C9485002C
:100040000C9422020C9485000C9492020C946C0285
:100050000C9485000C9485000C9485000C9485000C
:100060000C9485000C9485000000000024002700FB
:100070002A0000000000250028002B0004040404CE
:100080000404040402020202020203030303030342
:10009000010204081020408001020408102001021F
:1000A00004081020000000080002010000030407FB
:1000B0000000000000000000A10311241FBECFEFCC
:1000C000D8E0DEBFCDBF11E0A0E0B1E0E8E0F9E0AC
:1000D00002C005900D92A231B107D9F721E0A2E14B
:1000E000B1E001C01D92AD3EB207E1F710E0CDE5F1
:1000F000D0E004C02197FE010E947704CC35D107DF
:10010000C9F70E94E1030C9482040C94000090E073
:10011000FC01EC55FF4F2491FC01E057FF4F349157
:10012000FC01E458FF4FE491EE2309F43CC0222384
:1001300039F1233091F038F42130A9F0223001F563
:1001400084B58F7D12C0273091F02830A1F0243083
:10015000B9F4809180008F7D03C0809180008F77FB
:10016000809380000DC084B58F7784BD09C08091D5
:10017000B0008F7703C08091B0008F7D8093B00076
:10018000F0E0EE0FFF1FEE58FF4FA591B4919FB71F
:10019000F894611104C08C913095382302C0EC9121
:1001A0003E2B3C939FBF0895CF93DF9390E0FC01DB
:1001B000E057FF4F2491FC01E458FF4F84918823BE
:1001C00061F190E0880F991FFC01E859FF4FC5913C
:1001D000D491FC01EE58FF4FA591B491611109C073
:1001E0009FB7F8948881209582238883EC912E23F1
:1001F0000BC0623061F49FB7F8948881322F30953C
:1002000083238883EC912E2B2C939FBF06C08FB73E
:10021000F894E8812E2B28838FBFDF91CF9108952A
:10022000CF92DF92EF92FF920F931F93CF93DF93C2
:100230006C017A018B01C0E0D0E0CE15DF0581F0C2
:10024000D8016D918D01D601ED91FC910190F08165
:10025000E02DC6010995892B11F02196EECF7E0184
:10026000C701DF91CF911F910F91FF90EF90DF9029
:10027000CF900895089580E090E00895FC01538D9B
:10028000448D252F30E0842F90E0821B930B541770
:1002900010F0CF96089501970895FC01918D828DFD
:1002A000981761F0828DDF01A80FB11D5D968C91CA
:1002B000928D9F5F9F73928F90E008958FEF9FEFD5
:1002C0000895FC01918D828D981731F0828DE80F91
:1002D000F11D858D90E008958FEF9FEF0895FC014B
:1002E000918D228D892F90E0805C9F4F821B910918
:1002F0008F739927089581E491E00E946F0121E0B6
:10030000892B09F420E0822F0895FC01848DDF0100
:10031000A80FB11DA35ABF4F2C91848D90E0019678
:100320008F739927848FA689B7892C93A089B18967
:100330008C91837080648C93938D848D981306C008
:100340000288F389E02D80818F7D80830895EF926C
:10035000FF920F931F93CF93DF93EC0181E0888F7F
:100360009B8D8C8D981305C0E889F989808185FD66
:1003700026C0F62E0B8D10E00F5F1F4F0F73112755
:10038000E02E8C8DE8120CC00FB607FCFACFE8897E
:10039000F989808185FFF5CFCE010E948501F1CFDB
:1003A0008B8DFE01E80FF11DE35AFF4FF0829FB7DE
:1003B000F8940B8FEA89FB89808180620AC09FB71D
:1003C000F894EE89FF896083E889F98980818370D8
:1003D000806480839FBF81E090E0DF91CF911F9187
:1003E0000F91FF90EF900895CF93DF93EC01888DEC
:1003F0008823C9F0EA89FB89808185FD05C0A88929
:10040000B9898C9186FD0FC00FB607FCF5CF8081AE
:1004100085FFF2CFA889B9898C9185FFEDCFCE01F8
:100420000E948501E7CFDF91CF91089580E090E0B1
:10043000892B29F00E947B0181110C940000089502
:100440000E947D041F920F920FB60F9211242F93DA
:100450003F938F939F93AF93BF9380913D01909172
:100460003E01A0913F01B091400130913C0123E059
:10047000230F2D3720F40196A11DB11D05C026E8DC
:10048000230F0296A11DB11D20933C0180933D01D5
:1004900090933E01A0933F01B093400180913801B9
:1004A00090913901A0913A01B0913B010196A11DB3
:1004B000B11D8093380190933901A0933A01B09314
:1004C0003B01BF91AF919F918F913F912F910F90E1
:1004D0000FBE0F901F9018951F920F920FB60F929C
:1004E00011242F933F934F935F936F937F938F9339
:1004F0009F93AF93BF93EF93FF9381E491E00E94AA
:100500008501FF91EF91BF91AF919F918F917F9165
:100510006F915F914F913F912F910F900FBE0F9070
:100520001F9018951F920F920FB60F9211242F93C0
:100530008F939F93EF93FF93E0915101F0915201BC
:100540008081E0915701F091580182FD12C09081A5
:1005500080915A018F5F8F7320915B01821751F058
:10056000E0915A01F0E0EF5BFE4F958F80935A01C6
:1005700001C08081FF91EF919F918F912F910F90FA
:100580000FBE0F901F9018951F920F920FB60F92EB
:1005900011242F933F934F935F936F937F938F9388
:1005A0009F93AF93BF93EF93FF938091120187FFC7
:1005B00005C010928500109284001BC0209112018A
:1005C000022E000C330B8091370190E02817390779
:1005D00084F480911201082E000C990BFC01EE0F9F
:1005E000FF1F8E0F9F1FFC01ED5EFE4F808186FD79
:1005F00015C0809112018F5F80931201209112012A
:10060000022E000C330B8091370190E02817390738
:10061000C4F4809112018C3064F113C080911201F6
:10062000082E000C990BFC01EE0FFF1F8E0F9F1F71
:10063000FC01ED5EFE4F808160E08F730E948700B9
:10064000D8CF8091840090918500049680349C4995
:1006500018F480E49CE905C08091840090918500A5
:10066000049690938900809388008FEF8093120105
:100670003BC0209184003091850080911201082EAA
:10068000000C990BFC01EE0FFF1F8E0F9F1FFC014A
:10069000ED5EFE4F81819281820F931F90938900BE
:1006A0008093880080911201082E000C990BFC01A8
:1006B000EE0FFF1F8E0F9F1FFC01ED5EFE4F80812E
:1006C00086FF12C080911201082E000C990BFC01CC
:1006D000EE0FFF1F8E0F9F1FFC01ED5EFE4F80810E
:1006E00061E08F730E948700FF91EF91BF91AF91FE
:1006F0009F918F917F916F915F914F913F912F913A
:100700000F900FBE0F901F901895FC01909137012C
:100710009C30A0F481E0890F809337019083892F6A
:1007200090E0FC01EE0FFF1F8E0F9F1FFC01ED5E9E
:10073000FE4F88EB9BE09283818308958FEF808347
:100740000895E1E4F1E01382128288EE93E0A0E0E4
:10075000B0E084839583A683B78384E091E091839E
:10076000808385EC90E09587848784EC90E0978780
:10077000868780EC90E0918B808B81EC90E0938B6E
:10078000828B82EC90E0958B848B86EC90E0978B4B
:10079000868B118E128E138E148E8AEE91E00E943B
:1007A000850387EE91E00E94850384EE91E00E942C
:1007B000850381EE91E00E9485038EED91E00C941B
:1007C0008503789484B5826084BD84B5816084BDDE
:1007D00085B5826085BD85B5816085BD80916E00DF
:1007E000816080936E001092810080918100826010
:1007F000809381008091810081608093810080914D
:1008000080008160809380008091B100846080933B
:10081000B1008091B00081608093B00080917A0037
:10082000846080937A0080917A00826080937A005D
:1008300080917A00816080937A0080917A0080684C
:1008400080937A001092C100E0915101F091520121
:1008500082E08083E0914D01F0914E011082E091A1
:100860004F01F091500183E3808310925901E09190
:100870005501F091560186E08083E0915301F0919B
:100880005401808180618083E0915301F091540193
:10089000808188608083E0915301F09154018081D0
:1008A00080688083E0915301F091540180818F7DB5
:1008B000808361E081E00E94D40061E082E00E94D8
:1008C000D40060E082E00E94D40060E081E00E94F9
:1008D000D4008FB7F89440913D0150913E01609152
:1008E0003F01709140018FBF0E941602F2CFEE0FC0
:1008F000FF1F0590F491E02D099481E090E0F894B9
:080900000C948204F894FFCF6F
:1009080000000000A70110013E01F4016F014D0134
:0209180061017B
:00000001FF
